{
  "address": "0x20cdc23898003000483772d62ed338feb29bb239",
  "abi": [
    {
      "inputs": [
        {
          "internalType": "uint256",
          "name": "_lockTime",
          "type": "uint256"
        },
        {
          "internalType": "address",
          "name": "dataFeed_Addr",
          "type": "address"
        }
      ],
      "stateMutability": "nonpayable",
      "type": "constructor"
    },
    {
      "anonymous": false,
      "inputs": [
        {
          "indexed": false,
          "internalType": "uint256",
          "name": "",
          "type": "uint256"
        }
      ],
      "name": "FundWithdrawByOwner",
      "type": "event"
    },
    {
      "anonymous": false,
      "inputs": [
        {
          "indexed": false,
          "internalType": "address",
          "name": "",
          "type": "address"
        },
        {
          "indexed": false,
          "internalType": "uint256",
          "name": "",
          "type": "uint256"
        }
      ],
      "name": "ReFundByFunder",
      "type": "event"
    },
    {
      "inputs": [],
      "name": "dataFeed",
      "outputs": [
        {
          "internalType": "contract AggregatorV3Interface",
          "name": "",
          "type": "address"
        }
      ],
      "stateMutability": "view",
      "type": "function"
    },
    {
      "inputs": [],
      "name": "fund",
      "outputs": [],
      "stateMutability": "payable",
      "type": "function"
    },
    {
      "inputs": [
        {
          "internalType": "uint256",
          "name": "",
          "type": "uint256"
        }
      ],
      "name": "funderAddress",
      "outputs": [
        {
          "internalType": "address",
          "name": "",
          "type": "address"
        }
      ],
      "stateMutability": "view",
      "type": "function"
    },
    {
      "inputs": [],
      "name": "funderNumber",
      "outputs": [
        {
          "internalType": "uint64",
          "name": "",
          "type": "uint64"
        }
      ],
      "stateMutability": "view",
      "type": "function"
    },
    {
      "inputs": [
        {
          "internalType": "address",
          "name": "",
          "type": "address"
        }
      ],
      "name": "fundersToAmount",
      "outputs": [
        {
          "internalType": "uint256",
          "name": "",
          "type": "uint256"
        }
      ],
      "stateMutability": "view",
      "type": "function"
    },
    {
      "inputs": [],
      "name": "getChainlinkDataFeedLatestAnswer",
      "outputs": [
        {
          "internalType": "int256",
          "name": "",
          "type": "int256"
        }
      ],
      "stateMutability": "view",
      "type": "function"
    },
    {
      "inputs": [],
      "name": "getFund",
      "outputs": [],
      "stateMutability": "nonpayable",
      "type": "function"
    },
    {
      "inputs": [],
      "name": "getFundSuccess",
      "outputs": [
        {
          "internalType": "bool",
          "name": "",
          "type": "bool"
        }
      ],
      "stateMutability": "view",
      "type": "function"
    },
    {
      "inputs": [],
      "name": "lockTime",
      "outputs": [
        {
          "internalType": "uint256",
          "name": "",
          "type": "uint256"
        }
      ],
      "stateMutability": "view",
      "type": "function"
    },
    {
      "inputs": [],
      "name": "owner",
      "outputs": [
        {
          "internalType": "address",
          "name": "",
          "type": "address"
        }
      ],
      "stateMutability": "view",
      "type": "function"
    },
    {
      "inputs": [],
      "name": "refund",
      "outputs": [],
      "stateMutability": "nonpayable",
      "type": "function"
    },
    {
      "inputs": [
        {
          "internalType": "address",
          "name": "_erc20Addr",
          "type": "address"
        }
      ],
      "name": "setErc20Addr",
      "outputs": [],
      "stateMutability": "nonpayable",
      "type": "function"
    },
    {
      "inputs": [
        {
          "internalType": "address",
          "name": "funder",
          "type": "address"
        },
        {
          "internalType": "uint256",
          "name": "amountToUpdate",
          "type": "uint256"
        }
      ],
      "name": "setFunderToAmount",
      "outputs": [],
      "stateMutability": "nonpayable",
      "type": "function"
    },
    {
      "inputs": [
        {
          "internalType": "address",
          "name": "newOwner",
          "type": "address"
        }
      ],
      "name": "transferOwnership",
      "outputs": [],
      "stateMutability": "nonpayable",
      "type": "function"
    }
  ],
  "contractName": "FundMe",
  "sourceName": "contracts/FundMe.sol",
  "bytecode": "0x6080604052600a67ffffffffffffffff81111561001f5761001e61020b565b5b60405190808252806020026020018201604052801561004d5781602001602082028036833780820191505090505b5060019080519060200190610063929190610169565b505f60025f6101000a81548167ffffffffffffffff021916908367ffffffffffffffff1602179055505f600660146101000a81548160ff0219169083151502179055503480156100b1575f5ffd5b50604051611b34380380611b3483398181016040528101906100d391906102c9565b80600260086101000a81548173ffffffffffffffffffffffffffffffffffffffff021916908373ffffffffffffffffffffffffffffffffffffffff1602179055503360035f6101000a81548173ffffffffffffffffffffffffffffffffffffffff021916908373ffffffffffffffffffffffffffffffffffffffff16021790555042600481905550816005819055505050610307565b828054828255905f5260205f209081019282156101df579160200282015b828111156101de578251825f6101000a81548173ffffffffffffffffffffffffffffffffffffffff021916908373ffffffffffffffffffffffffffffffffffffffff16021790555091602001919060010190610187565b5b5090506101ec91906101f0565b5090565b5b80821115610207575f815f9055506001016101f1565b5090565b7f4e487b71000000000000000000000000000000000000000000000000000000005f52604160045260245ffd5b5f5ffd5b5f819050919050565b61024e8161023c565b8114610258575f5ffd5b50565b5f8151905061026981610245565b92915050565b5f73ffffffffffffffffffffffffffffffffffffffff82169050919050565b5f6102988261026f565b9050919050565b6102a88161028e565b81146102b2575f5ffd5b50565b5f815190506102c38161029f565b92915050565b5f5f604083850312156102df576102de610238565b5b5f6102ec8582860161025b565b92505060206102fd858286016102b5565b9150509250929050565b611820806103145f395ff3fe6080604052600436106100dc575f3560e01c80639e42ff901161007e578063bea4dfb511610058578063bea4dfb51461025e578063d39cf00614610288578063da4658e0146102b0578063f2fde38b146102da576100dc565b80639e42ff90146101ee5780639f883a0514610218578063b60d428814610254576100dc565b8063590e1ae3116100ba578063590e1ae31461016e5780635fe1ce5e146101845780638da5cb5b146101ae5780638edd6eb6146101d8576100dc565b80630d668087146100e057806313ffff011461010a57806345ba699714610132575b5f5ffd5b3480156100eb575f5ffd5b506100f4610302565b6040516101019190610ec0565b60405180910390f35b348015610115575f5ffd5b50610130600480360381019061012b9190610f37565b610308565b005b34801561013d575f5ffd5b5061015860048036038101906101539190610f8c565b6103da565b6040516101659190610fc6565b60405180910390f35b348015610179575f5ffd5b50610182610415565b005b34801561018f575f5ffd5b506101986106a5565b6040516101a59190611001565b60405180910390f35b3480156101b9575f5ffd5b506101c26106be565b6040516101cf9190610fc6565b60405180910390f35b3480156101e3575f5ffd5b506101ec6106e3565b005b3480156101f9575f5ffd5b506102026109e6565b60405161020f9190611075565b60405180910390f35b348015610223575f5ffd5b5061023e60048036038101906102399190610f37565b610a0c565b60405161024b9190610ec0565b60405180910390f35b61025c610a20565b005b348015610269575f5ffd5b50610272610c22565b60405161027f91906110a6565b60405180910390f35b348015610293575f5ffd5b506102ae60048036038101906102a991906110bf565b610cc0565b005b3480156102bb575f5ffd5b506102c4610d94565b6040516102d19190611117565b60405180910390f35b3480156102e5575f5ffd5b5061030060048036038101906102fb9190610f37565b610da7565b005b60055481565b60035f9054906101000a900473ffffffffffffffffffffffffffffffffffffffff1673ffffffffffffffffffffffffffffffffffffffff163373ffffffffffffffffffffffffffffffffffffffff1614610397576040517f08c379a000000000000000000000000000000000000000000000000000000000815260040161038e906111b0565b60405180910390fd5b8060065f6101000a81548173ffffffffffffffffffffffffffffffffffffffff021916908373ffffffffffffffffffffffffffffffffffffffff16021790555050565b600181815481106103e9575f80fd5b905f5260205f20015f915054906101000a900473ffffffffffffffffffffffffffffffffffffffff1681565b60055460045461042591906111fb565b421015610467576040517f08c379a000000000000000000000000000000000000000000000000000000000815260040161045e90611278565b60405180910390fd5b683635c9adc5dea0000061047a47610e79565b106104ba576040517f08c379a00000000000000000000000000000000000000000000000000000000081526004016104b1906112e0565b60405180910390fd5b5f5f5f3373ffffffffffffffffffffffffffffffffffffffff1673ffffffffffffffffffffffffffffffffffffffff1681526020019081526020015f205403610538576040517f08c379a000000000000000000000000000000000000000000000000000000000815260040161052f90611348565b60405180910390fd5b5f5f4790505f3390503373ffffffffffffffffffffffffffffffffffffffff165f5f3373ffffffffffffffffffffffffffffffffffffffff1673ffffffffffffffffffffffffffffffffffffffff1681526020019081526020015f20546040516105a190611393565b5f6040518083038185875af1925050503d805f81146105db576040519150601f19603f3d011682016040523d82523d5f602084013e6105e0565b606091505b50508093505082610626576040517f08c379a000000000000000000000000000000000000000000000000000000000815260040161061d906113f1565b60405180910390fd5b7f1c36f137a5c7f168f8aadd74861e663db95ecce92a1b31e0a47646cb1f75ccd9818360405161065792919061140f565b60405180910390a15f5f5f3373ffffffffffffffffffffffffffffffffffffffff1673ffffffffffffffffffffffffffffffffffffffff1681526020019081526020015f2081905550505050565b60025f9054906101000a900467ffffffffffffffff1681565b60035f9054906101000a900473ffffffffffffffffffffffffffffffffffffffff1681565b6005546004546106f391906111fb565b421015610735576040517f08c379a000000000000000000000000000000000000000000000000000000000815260040161072c90611278565b60405180910390fd5b60035f9054906101000a900473ffffffffffffffffffffffffffffffffffffffff1673ffffffffffffffffffffffffffffffffffffffff163373ffffffffffffffffffffffffffffffffffffffff16146107c4576040517f08c379a00000000000000000000000000000000000000000000000000000000081526004016107bb906111b0565b60405180910390fd5b683635c9adc5dea000006107d747610e79565b1015610818576040517f08c379a000000000000000000000000000000000000000000000000000000000815260040161080f90611480565b60405180910390fd5b5f5f4790503373ffffffffffffffffffffffffffffffffffffffff168160405161084190611393565b5f6040518083038185875af1925050503d805f811461087b576040519150601f19603f3d011682016040523d82523d5f602084013e610880565b606091505b505080925050816108c6576040517f08c379a00000000000000000000000000000000000000000000000000000000081526004016108bd906113f1565b60405180910390fd5b5f5f90505b60025f9054906101000a900467ffffffffffffffff1667ffffffffffffffff168167ffffffffffffffff16101561098f575f5f5f60018467ffffffffffffffff168154811061091d5761091c61149e565b5b905f5260205f20015f9054906101000a900473ffffffffffffffffffffffffffffffffffffffff1673ffffffffffffffffffffffffffffffffffffffff1673ffffffffffffffffffffffffffffffffffffffff1681526020019081526020015f208190555080806001019150506108cb565b507f2413e9342f4545ed6b87ad890930d6affc4c1914b742a3fad66c49d6d507c73b816040516109bf9190610ec0565b60405180910390a16001600660146101000a81548160ff0219169083151502179055505050565b600260089054906101000a900473ffffffffffffffffffffffffffffffffffffffff1681565b5f602052805f5260405f205f915090505481565b68056bc75e2d63100000610a3334610e79565b1015610a74576040517f08c379a0000000000000000000000000000000000000000000000000000000008152600401610a6b90611515565b60405180910390fd5b600554600454610a8491906111fb565b4210610ac5576040517f08c379a0000000000000000000000000000000000000000000000000000000008152600401610abc9061157d565b60405180910390fd5b5f5f5f3373ffffffffffffffffffffffffffffffffffffffff1673ffffffffffffffffffffffffffffffffffffffff1681526020019081526020015f205403610bce5733600160025f9054906101000a900467ffffffffffffffff1667ffffffffffffffff1681548110610b3c57610b3b61149e565b5b905f5260205f20015f6101000a81548173ffffffffffffffffffffffffffffffffffffffff021916908373ffffffffffffffffffffffffffffffffffffffff16021790555060025f81819054906101000a900467ffffffffffffffff1680929190610ba69061159b565b91906101000a81548167ffffffffffffffff021916908367ffffffffffffffff160217905550505b345f5f3373ffffffffffffffffffffffffffffffffffffffff1673ffffffffffffffffffffffffffffffffffffffff1681526020019081526020015f205f828254610c1991906111fb565b92505081905550565b5f5f600260089054906101000a900473ffffffffffffffffffffffffffffffffffffffff1673ffffffffffffffffffffffffffffffffffffffff1663feaf968c6040518163ffffffff1660e01b815260040160a060405180830381865afa158015610c8f573d5f5f3e3d5ffd5b505050506040513d601f19601f82011682018060405250810190610cb39190611647565b5050509150508091505090565b60065f9054906101000a900473ffffffffffffffffffffffffffffffffffffffff1673ffffffffffffffffffffffffffffffffffffffff163373ffffffffffffffffffffffffffffffffffffffff1614610d4f576040517f08c379a0000000000000000000000000000000000000000000000000000000008152600401610d469061172e565b60405180910390fd5b805f5f8473ffffffffffffffffffffffffffffffffffffffff1673ffffffffffffffffffffffffffffffffffffffff1681526020019081526020015f20819055505050565b600660149054906101000a900460ff1681565b60035f9054906101000a900473ffffffffffffffffffffffffffffffffffffffff1673ffffffffffffffffffffffffffffffffffffffff163373ffffffffffffffffffffffffffffffffffffffff1614610e36576040517f08c379a0000000000000000000000000000000000000000000000000000000008152600401610e2d906111b0565b60405180910390fd5b8060035f6101000a81548173ffffffffffffffffffffffffffffffffffffffff021916908373ffffffffffffffffffffffffffffffffffffffff16021790555050565b5f5f610e83610c22565b90506305f5e1008184610e96919061174c565b610ea091906117ba565b915050919050565b5f819050919050565b610eba81610ea8565b82525050565b5f602082019050610ed35f830184610eb1565b92915050565b5f5ffd5b5f73ffffffffffffffffffffffffffffffffffffffff82169050919050565b5f610f0682610edd565b9050919050565b610f1681610efc565b8114610f20575f5ffd5b50565b5f81359050610f3181610f0d565b92915050565b5f60208284031215610f4c57610f4b610ed9565b5b5f610f5984828501610f23565b91505092915050565b610f6b81610ea8565b8114610f75575f5ffd5b50565b5f81359050610f8681610f62565b92915050565b5f60208284031215610fa157610fa0610ed9565b5b5f610fae84828501610f78565b91505092915050565b610fc081610efc565b82525050565b5f602082019050610fd95f830184610fb7565b92915050565b5f67ffffffffffffffff82169050919050565b610ffb81610fdf565b82525050565b5f6020820190506110145f830184610ff2565b92915050565b5f819050919050565b5f61103d61103861103384610edd565b61101a565b610edd565b9050919050565b5f61104e82611023565b9050919050565b5f61105f82611044565b9050919050565b61106f81611055565b82525050565b5f6020820190506110885f830184611066565b92915050565b5f819050919050565b6110a08161108e565b82525050565b5f6020820190506110b95f830184611097565b92915050565b5f5f604083850312156110d5576110d4610ed9565b5b5f6110e285828601610f23565b92505060206110f385828601610f78565b9150509250929050565b5f8115159050919050565b611111816110fd565b82525050565b5f60208201905061112a5f830184611108565b92915050565b5f82825260208201905092915050565b7f746869732066756e6374696f6e2063616e206f6e6c792062652063616c6c65645f8201527f206279206f776e65720000000000000000000000000000000000000000000000602082015250565b5f61119a602983611130565b91506111a582611140565b604082019050919050565b5f6020820190508181035f8301526111c78161118e565b9050919050565b7f4e487b71000000000000000000000000000000000000000000000000000000005f52601160045260245ffd5b5f61120582610ea8565b915061121083610ea8565b9250828201905080821115611228576112276111ce565b5b92915050565b7f77696e646f77206973206e6f7420636c6f7365640000000000000000000000005f82015250565b5f611262601483611130565b915061126d8261122e565b602082019050919050565b5f6020820190508181035f83015261128f81611256565b9050919050565b7f54617267657420697320726561636865640000000000000000000000000000005f82015250565b5f6112ca601183611130565b91506112d582611296565b602082019050919050565b5f6020820190508181035f8301526112f7816112be565b9050919050565b7f7468657265206973206e6f2066756e6420666f7220796f7500000000000000005f82015250565b5f611332601883611130565b915061133d826112fe565b602082019050919050565b5f6020820190508181035f83015261135f81611326565b9050919050565b5f81905092915050565b50565b5f61137e5f83611366565b915061138982611370565b5f82019050919050565b5f61139d82611373565b9150819050919050565b7f7472616e73666572207478206661696c656400000000000000000000000000005f82015250565b5f6113db601283611130565b91506113e6826113a7565b602082019050919050565b5f6020820190508181035f830152611408816113cf565b9050919050565b5f6040820190506114225f830185610fb7565b61142f6020830184610eb1565b9392505050565b7f546172676574206e6f74207265616368656400000000000000000000000000005f82015250565b5f61146a601283611130565b915061147582611436565b602082019050919050565b5f6020820190508181035f8301526114978161145e565b9050919050565b7f4e487b71000000000000000000000000000000000000000000000000000000005f52603260045260245ffd5b7f53656e64206d6f726520455448000000000000000000000000000000000000005f82015250565b5f6114ff600d83611130565b915061150a826114cb565b602082019050919050565b5f6020820190508181035f83015261152c816114f3565b9050919050565b7f77696e646f7720697320636c6f736564000000000000000000000000000000005f82015250565b5f611567601083611130565b915061157282611533565b602082019050919050565b5f6020820190508181035f8301526115948161155b565b9050919050565b5f6115a582610fdf565b915067ffffffffffffffff82036115bf576115be6111ce565b5b600182019050919050565b5f69ffffffffffffffffffff82169050919050565b6115e8816115ca565b81146115f2575f5ffd5b50565b5f81519050611603816115df565b92915050565b6116128161108e565b811461161c575f5ffd5b50565b5f8151905061162d81611609565b92915050565b5f8151905061164181610f62565b92915050565b5f5f5f5f5f60a086880312156116605761165f610ed9565b5b5f61166d888289016115f5565b955050602061167e8882890161161f565b945050604061168f88828901611633565b93505060606116a088828901611633565b92505060806116b1888289016115f5565b9150509295509295909350565b7f796f7520646f206e6f742068617665207065726d697373696f6e20746f2063615f8201527f6c6c20746869732066756e74696f6e0000000000000000000000000000000000602082015250565b5f611718602f83611130565b9150611723826116be565b604082019050919050565b5f6020820190508181035f8301526117458161170c565b9050919050565b5f61175682610ea8565b915061176183610ea8565b925082820261176f81610ea8565b91508282048414831517611786576117856111ce565b5b5092915050565b7f4e487b71000000000000000000000000000000000000000000000000000000005f52601260045260245ffd5b5f6117c482610ea8565b91506117cf83610ea8565b9250826117df576117de61178d565b5b82820490509291505056fea2646970667358221220cceaa661c449a54576a81db9657c08cf3f7bb8d86ae0d36ffd79b18ebc1b58d764736f6c634300081c0033",
  "linkReferences": {},
  "deployedLinkReferences": {},
  "immutableReferences": {},
  "inputSourceName": "project/contracts/FundMe.sol",
  "devdoc": {
    "kind": "dev",
    "methods": {},
    "version": 1
  },
  "evm": {
    "gasEstimates": {
      "creation": {
        "codeDepositCost": "1235200",
        "executionCost": "infinite",
        "totalCost": "infinite"
      },
      "external": {
        "dataFeed()": "infinite",
        "fund()": "infinite",
        "funderAddress(uint256)": "5012",
        "funderNumber()": "2511",
        "fundersToAmount(address)": "2846",
        "getChainlinkDataFeedLatestAnswer()": "infinite",
        "getFund()": "infinite",
        "getFundSuccess()": "2583",
        "lockTime()": "2449",
        "owner()": "2575",
        "refund()": "infinite",
        "setErc20Addr(address)": "26930",
        "setFunderToAmount(address,uint256)": "25033",
        "transferOwnership(address)": "26972"
      },
      "internal": {
        "convertEthToUsd(uint256)": "infinite"
      }
    }
  },
  "storageLayout": {
    "storage": [
      {
        "astId": 319,
        "contract": "project/contracts/FundMe.sol:FundMe",
        "label": "fundersToAmount",
        "offset": 0,
        "slot": "0",
        "type": "t_mapping(t_address,t_uint256)"
      },
      {
        "astId": 327,
        "contract": "project/contracts/FundMe.sol:FundMe",
        "label": "funderAddress",
        "offset": 0,
        "slot": "1",
        "type": "t_array(t_address)dyn_storage"
      },
      {
        "astId": 330,
        "contract": "project/contracts/FundMe.sol:FundMe",
        "label": "funderNumber",
        "offset": 0,
        "slot": "2",
        "type": "t_uint64"
      },
      {
        "astId": 340,
        "contract": "project/contracts/FundMe.sol:FundMe",
        "label": "dataFeed",
        "offset": 8,
        "slot": "2",
        "type": "t_contract(AggregatorV3Interface)104"
      },
      {
        "astId": 349,
        "contract": "project/contracts/FundMe.sol:FundMe",
        "label": "owner",
        "offset": 0,
        "slot": "3",
        "type": "t_address"
      },
      {
        "astId": 351,
        "contract": "project/contracts/FundMe.sol:FundMe",
        "label": "deploymentTimestamp",
        "offset": 0,
        "slot": "4",
        "type": "t_uint256"
      },
      {
        "astId": 353,
        "contract": "project/contracts/FundMe.sol:FundMe",
        "label": "lockTime",
        "offset": 0,
        "slot": "5",
        "type": "t_uint256"
      },
      {
        "astId": 355,
        "contract": "project/contracts/FundMe.sol:FundMe",
        "label": "erc20Addr",
        "offset": 0,
        "slot": "6",
        "type": "t_address"
      },
      {
        "astId": 358,
        "contract": "project/contracts/FundMe.sol:FundMe",
        "label": "getFundSuccess",
        "offset": 20,
        "slot": "6",
        "type": "t_bool"
      }
    ],
    "types": {
      "t_address": {
        "encoding": "inplace",
        "label": "address",
        "numberOfBytes": "20"
      },
      "t_array(t_address)dyn_storage": {
        "base": "t_address",
        "encoding": "dynamic_array",
        "label": "address[]",
        "numberOfBytes": "32"
      },
      "t_bool": {
        "encoding": "inplace",
        "label": "bool",
        "numberOfBytes": "1"
      },
      "t_contract(AggregatorV3Interface)104": {
        "encoding": "inplace",
        "label": "contract AggregatorV3Interface",
        "numberOfBytes": "20"
      },
      "t_mapping(t_address,t_uint256)": {
        "encoding": "mapping",
        "key": "t_address",
        "label": "mapping(address => uint256)",
        "numberOfBytes": "32",
        "value": "t_uint256"
      },
      "t_uint256": {
        "encoding": "inplace",
        "label": "uint256",
        "numberOfBytes": "32"
      },
      "t_uint64": {
        "encoding": "inplace",
        "label": "uint64",
        "numberOfBytes": "8"
      }
    }
  },
  "userdoc": {
    "kind": "user",
    "methods": {},
    "version": 1
  },
  "argsData": "0x000000000000000000000000000000000000000000000000000000000000003c000000000000000000000000694aa1769357215de4fac081bf1f309adc325306",
  "transaction": {
    "hash": "0x7bf3294cd07e5fa0edd960aff07da24fbc8116e1b6ef49f6436ffdc893ccc5f6",
    "nonce": "0x51",
    "origin": "0xf6422e786cbfadb286dd482939ff48f28ea0cb34"
  }
}